{
  "_format": "hh-sol-artifact-1",
  "contractName": "Cohart",
  "sourceName": "contracts/Cohart.sol",
  "abi": [
    {
      "inputs": [],
      "stateMutability": "payable",
      "type": "constructor"
    },
    {
      "anonymous": false,
      "inputs": [
        {
          "indexed": true,
          "internalType": "address",
          "name": "owner",
          "type": "address"
        },
        {
          "indexed": true,
          "internalType": "address",
          "name": "approved",
          "type": "address"
        },
        {
          "indexed": true,
          "internalType": "uint256",
          "name": "tokenId",
          "type": "uint256"
        }
      ],
      "name": "Approval",
      "type": "event"
    },
    {
      "anonymous": false,
      "inputs": [
        {
          "indexed": true,
          "internalType": "address",
          "name": "owner",
          "type": "address"
        },
        {
          "indexed": true,
          "internalType": "address",
          "name": "operator",
          "type": "address"
        },
        {
          "indexed": false,
          "internalType": "bool",
          "name": "approved",
          "type": "bool"
        }
      ],
      "name": "ApprovalForAll",
      "type": "event"
    },
    {
      "anonymous": false,
      "inputs": [
        {
          "indexed": true,
          "internalType": "address",
          "name": "previousOwner",
          "type": "address"
        },
        {
          "indexed": true,
          "internalType": "address",
          "name": "newOwner",
          "type": "address"
        }
      ],
      "name": "OwnershipTransferred",
      "type": "event"
    },
    {
      "anonymous": false,
      "inputs": [
        {
          "indexed": false,
          "internalType": "address",
          "name": "account",
          "type": "address"
        }
      ],
      "name": "Paused",
      "type": "event"
    },
    {
      "anonymous": false,
      "inputs": [
        {
          "indexed": true,
          "internalType": "address",
          "name": "from",
          "type": "address"
        },
        {
          "indexed": true,
          "internalType": "address",
          "name": "to",
          "type": "address"
        },
        {
          "indexed": true,
          "internalType": "uint256",
          "name": "tokenId",
          "type": "uint256"
        }
      ],
      "name": "Transfer",
      "type": "event"
    },
    {
      "anonymous": false,
      "inputs": [
        {
          "indexed": false,
          "internalType": "address",
          "name": "account",
          "type": "address"
        }
      ],
      "name": "Unpaused",
      "type": "event"
    },
    {
      "inputs": [
        {
          "internalType": "address",
          "name": "to",
          "type": "address"
        },
        {
          "internalType": "uint256",
          "name": "tokenId",
          "type": "uint256"
        }
      ],
      "name": "approve",
      "outputs": [],
      "stateMutability": "nonpayable",
      "type": "function"
    },
    {
      "inputs": [
        {
          "internalType": "uint256",
          "name": "",
          "type": "uint256"
        }
      ],
      "name": "attributes",
      "outputs": [
        {
          "internalType": "string",
          "name": "name",
          "type": "string"
        },
        {
          "internalType": "uint256",
          "name": "id",
          "type": "uint256"
        }
      ],
      "stateMutability": "view",
      "type": "function"
    },
    {
      "inputs": [
        {
          "internalType": "address",
          "name": "owner",
          "type": "address"
        }
      ],
      "name": "balanceOf",
      "outputs": [
        {
          "internalType": "uint256",
          "name": "",
          "type": "uint256"
        }
      ],
      "stateMutability": "view",
      "type": "function"
    },
    {
      "inputs": [
        {
          "internalType": "uint256",
          "name": "tokenId",
          "type": "uint256"
        }
      ],
      "name": "burn",
      "outputs": [],
      "stateMutability": "nonpayable",
      "type": "function"
    },
    {
      "inputs": [
        {
          "internalType": "uint256",
          "name": "tokenId",
          "type": "uint256"
        }
      ],
      "name": "getApproved",
      "outputs": [
        {
          "internalType": "address",
          "name": "",
          "type": "address"
        }
      ],
      "stateMutability": "view",
      "type": "function"
    },
    {
      "inputs": [
        {
          "internalType": "uint256",
          "name": "tokenId",
          "type": "uint256"
        }
      ],
      "name": "getShares",
      "outputs": [
        {
          "components": [
            {
              "internalType": "address",
              "name": "to",
              "type": "address"
            },
            {
              "internalType": "string",
              "name": "name",
              "type": "string"
            },
            {
              "internalType": "uint8",
              "name": "percentage",
              "type": "uint8"
            }
          ],
          "internalType": "struct Cohart.Share[6]",
          "name": "",
          "type": "tuple[6]"
        }
      ],
      "stateMutability": "view",
      "type": "function"
    },
    {
      "inputs": [
        {
          "internalType": "uint256",
          "name": "tokenId",
          "type": "uint256"
        }
      ],
      "name": "getTags",
      "outputs": [
        {
          "internalType": "string[]",
          "name": "",
          "type": "string[]"
        }
      ],
      "stateMutability": "view",
      "type": "function"
    },
    {
      "inputs": [
        {
          "internalType": "address",
          "name": "owner",
          "type": "address"
        },
        {
          "internalType": "address",
          "name": "operator",
          "type": "address"
        }
      ],
      "name": "isApprovedForAll",
      "outputs": [
        {
          "internalType": "bool",
          "name": "",
          "type": "bool"
        }
      ],
      "stateMutability": "view",
      "type": "function"
    },
    {
      "inputs": [],
      "name": "name",
      "outputs": [
        {
          "internalType": "string",
          "name": "",
          "type": "string"
        }
      ],
      "stateMutability": "view",
      "type": "function"
    },
    {
      "inputs": [],
      "name": "owner",
      "outputs": [
        {
          "internalType": "address",
          "name": "",
          "type": "address"
        }
      ],
      "stateMutability": "view",
      "type": "function"
    },
    {
      "inputs": [
        {
          "internalType": "uint256",
          "name": "tokenId",
          "type": "uint256"
        }
      ],
      "name": "ownerOf",
      "outputs": [
        {
          "internalType": "address",
          "name": "",
          "type": "address"
        }
      ],
      "stateMutability": "view",
      "type": "function"
    },
    {
      "inputs": [],
      "name": "pause",
      "outputs": [],
      "stateMutability": "nonpayable",
      "type": "function"
    },
    {
      "inputs": [],
      "name": "paused",
      "outputs": [
        {
          "internalType": "bool",
          "name": "",
          "type": "bool"
        }
      ],
      "stateMutability": "view",
      "type": "function"
    },
    {
      "inputs": [],
      "name": "renounceOwnership",
      "outputs": [],
      "stateMutability": "nonpayable",
      "type": "function"
    },
    {
      "inputs": [
        {
          "internalType": "address",
          "name": "to",
          "type": "address"
        },
        {
          "internalType": "string",
          "name": "uri",
          "type": "string"
        },
        {
          "internalType": "string",
          "name": "name",
          "type": "string"
        },
        {
          "internalType": "string[]",
          "name": "tags",
          "type": "string[]"
        },
        {
          "components": [
            {
              "internalType": "address",
              "name": "to",
              "type": "address"
            },
            {
              "internalType": "string",
              "name": "name",
              "type": "string"
            },
            {
              "internalType": "uint8",
              "name": "percentage",
              "type": "uint8"
            }
          ],
          "internalType": "struct Cohart.Share[]",
          "name": "shares",
          "type": "tuple[]"
        }
      ],
      "name": "safeMint",
      "outputs": [],
      "stateMutability": "nonpayable",
      "type": "function"
    },
    {
      "inputs": [
        {
          "internalType": "address",
          "name": "from",
          "type": "address"
        },
        {
          "internalType": "address",
          "name": "to",
          "type": "address"
        },
        {
          "internalType": "uint256",
          "name": "tokenId",
          "type": "uint256"
        }
      ],
      "name": "safeTransferFrom",
      "outputs": [],
      "stateMutability": "nonpayable",
      "type": "function"
    },
    {
      "inputs": [
        {
          "internalType": "address",
          "name": "from",
          "type": "address"
        },
        {
          "internalType": "address",
          "name": "to",
          "type": "address"
        },
        {
          "internalType": "uint256",
          "name": "tokenId",
          "type": "uint256"
        },
        {
          "internalType": "bytes",
          "name": "_data",
          "type": "bytes"
        }
      ],
      "name": "safeTransferFrom",
      "outputs": [],
      "stateMutability": "nonpayable",
      "type": "function"
    },
    {
      "inputs": [
        {
          "internalType": "address",
          "name": "operator",
          "type": "address"
        },
        {
          "internalType": "bool",
          "name": "approved",
          "type": "bool"
        }
      ],
      "name": "setApprovalForAll",
      "outputs": [],
      "stateMutability": "nonpayable",
      "type": "function"
    },
    {
      "inputs": [
        {
          "internalType": "bytes4",
          "name": "interfaceId",
          "type": "bytes4"
        }
      ],
      "name": "supportsInterface",
      "outputs": [
        {
          "internalType": "bool",
          "name": "",
          "type": "bool"
        }
      ],
      "stateMutability": "view",
      "type": "function"
    },
    {
      "inputs": [],
      "name": "symbol",
      "outputs": [
        {
          "internalType": "string",
          "name": "",
          "type": "string"
        }
      ],
      "stateMutability": "view",
      "type": "function"
    },
    {
      "inputs": [
        {
          "internalType": "uint256",
          "name": "tokenId",
          "type": "uint256"
        }
      ],
      "name": "tokenURI",
      "outputs": [
        {
          "internalType": "string",
          "name": "",
          "type": "string"
        }
      ],
      "stateMutability": "view",
      "type": "function"
    },
    {
      "inputs": [
        {
          "internalType": "address",
          "name": "from",
          "type": "address"
        },
        {
          "internalType": "address",
          "name": "to",
          "type": "address"
        },
        {
          "internalType": "uint256",
          "name": "tokenId",
          "type": "uint256"
        }
      ],
      "name": "transferFrom",
      "outputs": [],
      "stateMutability": "nonpayable",
      "type": "function"
    },
    {
      "inputs": [
        {
          "internalType": "address",
          "name": "newOwner",
          "type": "address"
        }
      ],
      "name": "transferOwnership",
      "outputs": [],
      "stateMutability": "nonpayable",
      "type": "function"
    },
    {
      "inputs": [],
      "name": "unpause",
      "outputs": [],
      "stateMutability": "nonpayable",
      "type": "function"
    }
  ],
  "bytecode": "0x60806040526040518060400160405280600681526020017f436f6861727400000000000000000000000000000000000000000000000000008152506040518060400160405280600681526020017f434f484152540000000000000000000000000000000000000000000000000000815250816000908051906020019062000088929190620001b3565b508060019080519060200190620000a1929190620001b3565b5050506000600760006101000a81548160ff021916908315150217905550620000df620000d3620000e560201b60201c565b620000ed60201b60201c565b620002c8565b600033905090565b6000600760019054906101000a900473ffffffffffffffffffffffffffffffffffffffff16905081600760016101000a81548173ffffffffffffffffffffffffffffffffffffffff021916908373ffffffffffffffffffffffffffffffffffffffff1602179055508173ffffffffffffffffffffffffffffffffffffffff168173ffffffffffffffffffffffffffffffffffffffff167f8be0079c531659141344cd1fd0a4f28419497f9722a3daafe3b4186f6b6457e060405160405180910390a35050565b828054620001c19062000263565b90600052602060002090601f016020900481019282620001e5576000855562000231565b82601f106200020057805160ff191683800117855562000231565b8280016001018555821562000231579182015b828111156200023057825182559160200191906001019062000213565b5b50905062000240919062000244565b5090565b5b808211156200025f57600081600090555060010162000245565b5090565b600060028204905060018216806200027c57607f821691505b6020821081141562000293576200029262000299565b5b50919050565b7f4e487b7100000000000000000000000000000000000000000000000000000000600052602260045260246000fd5b61470b80620002d86000396000f3fe608060405234801561001057600080fd5b50600436106101585760003560e01c80636f7267b7116100c3578063a22cb4651161007c578063a22cb4651461039f578063b88d4fde146103bb578063c87b56dd146103d7578063d05dcc6a14610407578063e985e9c514610438578063f2fde38b1461046857610158565b80636f7267b7146102ef57806370a082311461031f578063715018a61461034f5780638456cb59146103595780638da5cb5b1461036357806395d89b411461038157610158565b806329d29cb31161011557806329d29cb31461022f5780633f4ba83a1461025f57806342842e0e1461026957806342966c68146102855780635c975abb146102a15780636352211e146102bf57610158565b806301ffc9a71461015d57806306fdde031461018d578063081812fc146101ab578063095ea7b3146101db57806316d6e1a7146101f757806323b872dd14610213575b600080fd5b610177600480360381019061017291906130c3565b610484565b60405161018491906137a4565b60405180910390f35b610195610566565b6040516101a291906137bf565b60405180910390f35b6101c560048036038101906101c0919061311d565b6105f8565b6040516101d291906136f9565b60405180910390f35b6101f560048036038101906101f09190613083565b61067d565b005b610211600480360381019061020c9190612f98565b610795565b005b61022d60048036038101906102289190612e82565b610848565b005b6102496004803603810190610244919061311d565b6108a8565b6040516102569190613760565b60405180910390f35b610267610a4e565b005b610283600480360381019061027e9190612e82565b610ad4565b005b61029f600480360381019061029a919061311d565b610af4565b005b6102a9610b50565b6040516102b691906137a4565b60405180910390f35b6102d960048036038101906102d4919061311d565b610b67565b6040516102e691906136f9565b60405180910390f35b6103096004803603810190610304919061311d565b610c19565b6040516103169190613782565b60405180910390f35b61033960048036038101906103349190612e15565b610d83565b6040516103469190613b24565b60405180910390f35b610357610e3b565b005b610361610ec3565b005b61036b610f49565b60405161037891906136f9565b60405180910390f35b610389610f73565b60405161039691906137bf565b60405180910390f35b6103b960048036038101906103b49190612f58565b611005565b005b6103d560048036038101906103d09190612ed5565b61101b565b005b6103f160048036038101906103ec919061311d565b61107d565b6040516103fe91906137bf565b60405180910390f35b610421600480360381019061041c919061311d565b61108f565b60405161042f929190613834565b60405180910390f35b610452600480360381019061044d9190612e42565b61113b565b60405161045f91906137a4565b60405180910390f35b610482600480360381019061047d9190612e15565b6111cf565b005b60007f80ac58cd000000000000000000000000000000000000000000000000000000007bffffffffffffffffffffffffffffffffffffffffffffffffffffffff1916827bffffffffffffffffffffffffffffffffffffffffffffffffffffffff1916148061054f57507f5b5e139f000000000000000000000000000000000000000000000000000000007bffffffffffffffffffffffffffffffffffffffffffffffffffffffff1916827bffffffffffffffffffffffffffffffffffffffffffffffffffffffff1916145b8061055f575061055e826112c7565b5b9050919050565b60606000805461057590613e56565b80601f01602080910402602001604051908101604052809291908181526020018280546105a190613e56565b80156105ee5780601f106105c3576101008083540402835291602001916105ee565b820191906000526020600020905b8154815290600101906020018083116105d157829003601f168201915b5050505050905090565b600061060382611331565b610642576040517f08c379a000000000000000000000000000000000000000000000000000000000815260040161063990613a24565b60405180910390fd5b6004600083815260200190815260200160002060009054906101000a900473ffffffffffffffffffffffffffffffffffffffff169050919050565b600061068882610b67565b90508073ffffffffffffffffffffffffffffffffffffffff168373ffffffffffffffffffffffffffffffffffffffff1614156106f9576040517f08c379a00000000000000000000000000000000000000000000000000000000081526004016106f090613ac4565b60405180910390fd5b8073ffffffffffffffffffffffffffffffffffffffff1661071861139d565b73ffffffffffffffffffffffffffffffffffffffff16148061074757506107468161074161139d565b61113b565b5b610786576040517f08c379a000000000000000000000000000000000000000000000000000000000815260040161077d90613964565b60405180910390fd5b61079083836113a5565b505050565b60006107a1600861145e565b90506107ad600861146c565b6107b78682611482565b6107c181866114a0565b60405180606001604052808581526020018281526020018481525060096000838152602001908152602001600020600082015181600001908051906020019061080b9291906128f1565b50602082015181600101556040820151816002019080519060200190610832929190612977565b509050506108408183611514565b505050505050565b61085961085361139d565b82611807565b610898576040517f08c379a000000000000000000000000000000000000000000000000000000000815260040161088f90613ae4565b60405180910390fd5b6108a38383836118e5565b505050565b60606000600960008481526020019081526020016000206040518060600160405290816000820180546108da90613e56565b80601f016020809104026020016040519081016040528092919081815260200182805461090690613e56565b80156109535780601f1061092857610100808354040283529160200191610953565b820191906000526020600020905b81548152906001019060200180831161093657829003601f168201915b505050505081526020016001820154815260200160028201805480602002602001604051908101604052809291908181526020016000905b82821015610a375783829060005260206000200180546109aa90613e56565b80601f01602080910402602001604051908101604052809291908181526020018280546109d690613e56565b8015610a235780601f106109f857610100808354040283529160200191610a23565b820191906000526020600020905b815481529060010190602001808311610a0657829003601f168201915b50505050508152602001906001019061098b565b505050508152505090508060400151915050919050565b610a5661139d565b73ffffffffffffffffffffffffffffffffffffffff16610a74610f49565b73ffffffffffffffffffffffffffffffffffffffff1614610aca576040517f08c379a0000000000000000000000000000000000000000000000000000000008152600401610ac190613a64565b60405180910390fd5b610ad2611b41565b565b610aef8383836040518060200160405280600081525061101b565b505050565b610b05610aff61139d565b82611807565b610b44576040517f08c379a0000000000000000000000000000000000000000000000000000000008152600401610b3b90613b04565b60405180910390fd5b610b4d81611be3565b50565b6000600760009054906101000a900460ff16905090565b6000806002600084815260200190815260200160002060009054906101000a900473ffffffffffffffffffffffffffffffffffffffff169050600073ffffffffffffffffffffffffffffffffffffffff168173ffffffffffffffffffffffffffffffffffffffff161415610c10576040517f08c379a0000000000000000000000000000000000000000000000000000000008152600401610c07906139a4565b60405180910390fd5b80915050919050565b610c216129d7565b600a6000838152602001908152602001600020600680602002604051908101604052809291906000905b82821015610d78578382600302016040518060600160405290816000820160009054906101000a900473ffffffffffffffffffffffffffffffffffffffff1673ffffffffffffffffffffffffffffffffffffffff1673ffffffffffffffffffffffffffffffffffffffff168152602001600182018054610cca90613e56565b80601f0160208091040260200160405190810160405280929190818152602001828054610cf690613e56565b8015610d435780601f10610d1857610100808354040283529160200191610d43565b820191906000526020600020905b815481529060010190602001808311610d2657829003601f168201915b505050505081526020016002820160009054906101000a900460ff1660ff1660ff168152505081526020019060010190610c4b565b505050509050919050565b60008073ffffffffffffffffffffffffffffffffffffffff168273ffffffffffffffffffffffffffffffffffffffff161415610df4576040517f08c379a0000000000000000000000000000000000000000000000000000000008152600401610deb90613984565b60405180910390fd5b600360008373ffffffffffffffffffffffffffffffffffffffff1673ffffffffffffffffffffffffffffffffffffffff168152602001908152602001600020549050919050565b610e4361139d565b73ffffffffffffffffffffffffffffffffffffffff16610e61610f49565b73ffffffffffffffffffffffffffffffffffffffff1614610eb7576040517f08c379a0000000000000000000000000000000000000000000000000000000008152600401610eae90613a64565b60405180910390fd5b610ec16000611bef565b565b610ecb61139d565b73ffffffffffffffffffffffffffffffffffffffff16610ee9610f49565b73ffffffffffffffffffffffffffffffffffffffff1614610f3f576040517f08c379a0000000000000000000000000000000000000000000000000000000008152600401610f3690613a64565b60405180910390fd5b610f47611cb5565b565b6000600760019054906101000a900473ffffffffffffffffffffffffffffffffffffffff16905090565b606060018054610f8290613e56565b80601f0160208091040260200160405190810160405280929190818152602001828054610fae90613e56565b8015610ffb5780601f10610fd057610100808354040283529160200191610ffb565b820191906000526020600020905b815481529060010190602001808311610fde57829003601f168201915b5050505050905090565b61101761101061139d565b8383611d58565b5050565b61102c61102661139d565b83611807565b61106b576040517f08c379a000000000000000000000000000000000000000000000000000000000815260040161106290613ae4565b60405180910390fd5b61107784848484611ec5565b50505050565b606061108882611f21565b9050919050565b60096020528060005260406000206000915090508060000180546110b290613e56565b80601f01602080910402602001604051908101604052809291908181526020018280546110de90613e56565b801561112b5780601f106111005761010080835404028352916020019161112b565b820191906000526020600020905b81548152906001019060200180831161110e57829003601f168201915b5050505050908060010154905082565b6000600560008473ffffffffffffffffffffffffffffffffffffffff1673ffffffffffffffffffffffffffffffffffffffff16815260200190815260200160002060008373ffffffffffffffffffffffffffffffffffffffff1673ffffffffffffffffffffffffffffffffffffffff16815260200190815260200160002060009054906101000a900460ff16905092915050565b6111d761139d565b73ffffffffffffffffffffffffffffffffffffffff166111f5610f49565b73ffffffffffffffffffffffffffffffffffffffff161461124b576040517f08c379a000000000000000000000000000000000000000000000000000000000815260040161124290613a64565b60405180910390fd5b600073ffffffffffffffffffffffffffffffffffffffff168173ffffffffffffffffffffffffffffffffffffffff1614156112bb576040517f08c379a00000000000000000000000000000000000000000000000000000000081526004016112b2906138a4565b60405180910390fd5b6112c481611bef565b50565b60007f01ffc9a7000000000000000000000000000000000000000000000000000000007bffffffffffffffffffffffffffffffffffffffffffffffffffffffff1916827bffffffffffffffffffffffffffffffffffffffffffffffffffffffff1916149050919050565b60008073ffffffffffffffffffffffffffffffffffffffff166002600084815260200190815260200160002060009054906101000a900473ffffffffffffffffffffffffffffffffffffffff1673ffffffffffffffffffffffffffffffffffffffff1614159050919050565b600033905090565b816004600083815260200190815260200160002060006101000a81548173ffffffffffffffffffffffffffffffffffffffff021916908373ffffffffffffffffffffffffffffffffffffffff160217905550808273ffffffffffffffffffffffffffffffffffffffff1661141883610b67565b73ffffffffffffffffffffffffffffffffffffffff167f8c5be1e5ebec7d5bd14f71427d1e84f3dd0314c0f7b2291e5b200ac8c7c3b92560405160405180910390a45050565b600081600001549050919050565b6001816000016000828254019250508190555050565b61149c828260405180602001604052806000815250612073565b5050565b6114a982611331565b6114e8576040517f08c379a00000000000000000000000000000000000000000000000000000000081526004016114df906139c4565b60405180910390fd5b8060066000848152602001908152602001600020908051906020019061150f9291906128f1565b505050565b6004815111158015611527575060008151115b611566576040517f08c379a000000000000000000000000000000000000000000000000000000000815260040161155d90613a44565b60405180910390fd5b60005b81518160ff1610156118025761161c6040518060400160405280601881526020017f53686172652070656f706c653a2025732c2025732c2025640000000000000000815250838360ff16815181106115c4576115c3613fea565b5b602002602001015160200151848460ff16815181106115e6576115e5613fea565b5b602002602001015160000151858560ff168151811061160857611607613fea565b5b60200260200101516040015160ff166120ce565b600073ffffffffffffffffffffffffffffffffffffffff16828260ff168151811061164a57611649613fea565b5b60200260200101516000015173ffffffffffffffffffffffffffffffffffffffff161415801561169e57506000828260ff168151811061168d5761168c613fea565b5b60200260200101516040015160ff16115b156117ef576040518060600160405280838360ff16815181106116c4576116c3613fea565b5b60200260200101516000015173ffffffffffffffffffffffffffffffffffffffff168152602001838360ff168151811061170157611700613fea565b5b6020026020010151602001518152602001838360ff168151811061172857611727613fea565b5b60200260200101516040015160ff16815250600a60008581526020019081526020016000208260ff166006811061176257611761613fea565b5b6003020160008201518160000160006101000a81548173ffffffffffffffffffffffffffffffffffffffff021916908373ffffffffffffffffffffffffffffffffffffffff16021790555060208201518160010190805190602001906117c99291906128f1565b5060408201518160020160006101000a81548160ff021916908360ff1602179055509050505b80806117fa90613f02565b915050611569565b505050565b600061181282611331565b611851576040517f08c379a000000000000000000000000000000000000000000000000000000000815260040161184890613924565b60405180910390fd5b600061185c83610b67565b90508073ffffffffffffffffffffffffffffffffffffffff168473ffffffffffffffffffffffffffffffffffffffff1614806118cb57508373ffffffffffffffffffffffffffffffffffffffff166118b3846105f8565b73ffffffffffffffffffffffffffffffffffffffff16145b806118dc57506118db818561113b565b5b91505092915050565b8273ffffffffffffffffffffffffffffffffffffffff1661190582610b67565b73ffffffffffffffffffffffffffffffffffffffff161461195b576040517f08c379a000000000000000000000000000000000000000000000000000000000815260040161195290613a84565b60405180910390fd5b600073ffffffffffffffffffffffffffffffffffffffff168273ffffffffffffffffffffffffffffffffffffffff1614156119cb576040517f08c379a00000000000000000000000000000000000000000000000000000000081526004016119c2906138e4565b60405180910390fd5b6119d6838383612170565b6119e16000826113a5565b6001600360008573ffffffffffffffffffffffffffffffffffffffff1673ffffffffffffffffffffffffffffffffffffffff1681526020019081526020016000206000828254611a319190613d5f565b925050819055506001600360008473ffffffffffffffffffffffffffffffffffffffff1673ffffffffffffffffffffffffffffffffffffffff1681526020019081526020016000206000828254611a889190613cd8565b92505081905550816002600083815260200190815260200160002060006101000a81548173ffffffffffffffffffffffffffffffffffffffff021916908373ffffffffffffffffffffffffffffffffffffffff160217905550808273ffffffffffffffffffffffffffffffffffffffff168473ffffffffffffffffffffffffffffffffffffffff167fddf252ad1be2c89b69c2b068fc378daa952ba7f163c4a11628f55a4df523b3ef60405160405180910390a4505050565b611b49610b50565b611b88576040517f08c379a0000000000000000000000000000000000000000000000000000000008152600401611b7f90613864565b60405180910390fd5b6000600760006101000a81548160ff0219169083151502179055507f5db9ee0a495bf2e6ff9c91a7834c1ba4fdd244a5e8aa4e537bd38aeae4b073aa611bcc61139d565b604051611bd991906136f9565b60405180910390a1565b611bec816121c8565b50565b6000600760019054906101000a900473ffffffffffffffffffffffffffffffffffffffff16905081600760016101000a81548173ffffffffffffffffffffffffffffffffffffffff021916908373ffffffffffffffffffffffffffffffffffffffff1602179055508173ffffffffffffffffffffffffffffffffffffffff168173ffffffffffffffffffffffffffffffffffffffff167f8be0079c531659141344cd1fd0a4f28419497f9722a3daafe3b4186f6b6457e060405160405180910390a35050565b611cbd610b50565b15611cfd576040517f08c379a0000000000000000000000000000000000000000000000000000000008152600401611cf490613944565b60405180910390fd5b6001600760006101000a81548160ff0219169083151502179055507f62e78cea01bee320cd4e420270b5ea74000d11b0c9f74754ebdbfc544b05a258611d4161139d565b604051611d4e91906136f9565b60405180910390a1565b8173ffffffffffffffffffffffffffffffffffffffff168373ffffffffffffffffffffffffffffffffffffffff161415611dc7576040517f08c379a0000000000000000000000000000000000000000000000000000000008152600401611dbe90613904565b60405180910390fd5b80600560008573ffffffffffffffffffffffffffffffffffffffff1673ffffffffffffffffffffffffffffffffffffffff16815260200190815260200160002060008473ffffffffffffffffffffffffffffffffffffffff1673ffffffffffffffffffffffffffffffffffffffff16815260200190815260200160002060006101000a81548160ff0219169083151502179055508173ffffffffffffffffffffffffffffffffffffffff168373ffffffffffffffffffffffffffffffffffffffff167f17307eab39ab6107e8899845ad3d59bd9653f200f220920489ca2b5937696c3183604051611eb891906137a4565b60405180910390a3505050565b611ed08484846118e5565b611edc8484848461221b565b611f1b576040517f08c379a0000000000000000000000000000000000000000000000000000000008152600401611f1290613884565b60405180910390fd5b50505050565b6060611f2c82611331565b611f6b576040517f08c379a0000000000000000000000000000000000000000000000000000000008152600401611f6290613a04565b60405180910390fd5b6000600660008481526020019081526020016000208054611f8b90613e56565b80601f0160208091040260200160405190810160405280929190818152602001828054611fb790613e56565b80156120045780601f10611fd957610100808354040283529160200191612004565b820191906000526020600020905b815481529060010190602001808311611fe757829003601f168201915b5050505050905060006120156123b2565b905060008151141561202b57819250505061206e565b6000825111156120605780826040516020016120489291906136d5565b6040516020818303038152906040529250505061206e565b612069846123c9565b925050505b919050565b61207d8383612470565b61208a600084848461221b565b6120c9576040517f08c379a00000000000000000000000000000000000000000000000000000000081526004016120c090613884565b60405180910390fd5b505050565b61216a848484846040516024016120e894939291906137e1565b6040516020818303038152906040527f4a81a56a000000000000000000000000000000000000000000000000000000007bffffffffffffffffffffffffffffffffffffffffffffffffffffffff19166020820180517bffffffffffffffffffffffffffffffffffffffffffffffffffffffff838183161783525050505061263e565b50505050565b612178610b50565b156121b8576040517f08c379a00000000000000000000000000000000000000000000000000000000081526004016121af90613944565b60405180910390fd5b6121c3838383612667565b505050565b6121d18161266c565b60006006600083815260200190815260200160002080546121f190613e56565b905014612218576006600082815260200190815260200160002060006122179190612a04565b5b50565b600061223c8473ffffffffffffffffffffffffffffffffffffffff1661277d565b156123a5578373ffffffffffffffffffffffffffffffffffffffff1663150b7a0261226561139d565b8786866040518563ffffffff1660e01b81526004016122879493929190613714565b602060405180830381600087803b1580156122a157600080fd5b505af19250505080156122d257506040513d601f19601f820116820180604052508101906122cf91906130f0565b60015b612355573d8060008114612302576040519150601f19603f3d011682016040523d82523d6000602084013e612307565b606091505b5060008151141561234d576040517f08c379a000000000000000000000000000000000000000000000000000000000815260040161234490613884565b60405180910390fd5b805181602001fd5b63150b7a0260e01b7bffffffffffffffffffffffffffffffffffffffffffffffffffffffff1916817bffffffffffffffffffffffffffffffffffffffffffffffffffffffff1916149150506123aa565b600190505b949350505050565b606060405180602001604052806000815250905090565b60606123d482611331565b612413576040517f08c379a000000000000000000000000000000000000000000000000000000000815260040161240a90613aa4565b60405180910390fd5b600061241d6123b2565b9050600081511161243d5760405180602001604052806000815250612468565b8061244784612790565b6040516020016124589291906136d5565b6040516020818303038152906040525b915050919050565b600073ffffffffffffffffffffffffffffffffffffffff168273ffffffffffffffffffffffffffffffffffffffff1614156124e0576040517f08c379a00000000000000000000000000000000000000000000000000000000081526004016124d7906139e4565b60405180910390fd5b6124e981611331565b15612529576040517f08c379a0000000000000000000000000000000000000000000000000000000008152600401612520906138c4565b60405180910390fd5b61253560008383612170565b6001600360008473ffffffffffffffffffffffffffffffffffffffff1673ffffffffffffffffffffffffffffffffffffffff16815260200190815260200160002060008282546125859190613cd8565b92505081905550816002600083815260200190815260200160002060006101000a81548173ffffffffffffffffffffffffffffffffffffffff021916908373ffffffffffffffffffffffffffffffffffffffff160217905550808273ffffffffffffffffffffffffffffffffffffffff16600073ffffffffffffffffffffffffffffffffffffffff167fddf252ad1be2c89b69c2b068fc378daa952ba7f163c4a11628f55a4df523b3ef60405160405180910390a45050565b60008151905060006a636f6e736f6c652e6c6f679050602083016000808483855afa5050505050565b505050565b600061267782610b67565b905061268581600084612170565b6126906000836113a5565b6001600360008373ffffffffffffffffffffffffffffffffffffffff1673ffffffffffffffffffffffffffffffffffffffff16815260200190815260200160002060008282546126e09190613d5f565b925050819055506002600083815260200190815260200160002060006101000a81549073ffffffffffffffffffffffffffffffffffffffff021916905581600073ffffffffffffffffffffffffffffffffffffffff168273ffffffffffffffffffffffffffffffffffffffff167fddf252ad1be2c89b69c2b068fc378daa952ba7f163c4a11628f55a4df523b3ef60405160405180910390a45050565b600080823b905060008111915050919050565b606060008214156127d8576040518060400160405280600181526020017f300000000000000000000000000000000000000000000000000000000000000081525090506128ec565b600082905060005b6000821461280a5780806127f390613eb9565b915050600a826128039190613d2e565b91506127e0565b60008167ffffffffffffffff81111561282657612825614019565b5b6040519080825280601f01601f1916602001820160405280156128585781602001600182028036833780820191505090505b5090505b600085146128e5576001826128719190613d5f565b9150600a856128809190613f2c565b603061288c9190613cd8565b60f81b8183815181106128a2576128a1613fea565b5b60200101907effffffffffffffffffffffffffffffffffffffffffffffffffffffffffffff1916908160001a905350600a856128de9190613d2e565b945061285c565b8093505050505b919050565b8280546128fd90613e56565b90600052602060002090601f01602090048101928261291f5760008555612966565b82601f1061293857805160ff1916838001178555612966565b82800160010185558215612966579182015b8281111561296557825182559160200191906001019061294a565b5b5090506129739190612a44565b5090565b8280548282559060005260206000209081019282156129c6579160200282015b828111156129c55782518290805190602001906129b59291906128f1565b5091602001919060010190612997565b5b5090506129d39190612a61565b5090565b6040518060c001604052806006905b6129ee612a85565b8152602001906001900390816129e65790505090565b508054612a1090613e56565b6000825580601f10612a225750612a41565b601f016020900490600052602060002090810190612a409190612a44565b5b50565b5b80821115612a5d576000816000905550600101612a45565b5090565b5b80821115612a815760008181612a789190612a04565b50600101612a62565b5090565b6040518060600160405280600073ffffffffffffffffffffffffffffffffffffffff16815260200160608152602001600060ff1681525090565b6000612ad2612acd84613b64565b613b3f565b90508083825260208201905082856020860282011115612af557612af4614057565b5b60005b85811015612b4357813567ffffffffffffffff811115612b1b57612b1a614048565b5b808601612b288982612d3d565b85526020850194506020840193505050600181019050612af8565b5050509392505050565b6000612b60612b5b84613b90565b613b3f565b90508083825260208201905082856020860282011115612b8357612b82614057565b5b60005b85811015612bd157813567ffffffffffffffff811115612ba957612ba8614048565b5b808601612bb68982612d6b565b85526020850194506020840193505050600181019050612b86565b5050509392505050565b6000612bee612be984613bbc565b613b3f565b905082815260208101848484011115612c0a57612c0961405c565b5b612c15848285613e14565b509392505050565b6000612c30612c2b84613bed565b613b3f565b905082815260208101848484011115612c4c57612c4b61405c565b5b612c57848285613e14565b509392505050565b600081359050612c6e81614662565b92915050565b600082601f830112612c8957612c88614048565b5b8135612c99848260208601612abf565b91505092915050565b600082601f830112612cb757612cb6614048565b5b8135612cc7848260208601612b4d565b91505092915050565b600081359050612cdf81614679565b92915050565b600081359050612cf481614690565b92915050565b600081519050612d0981614690565b92915050565b600082601f830112612d2457612d23614048565b5b8135612d34848260208601612bdb565b91505092915050565b600082601f830112612d5257612d51614048565b5b8135612d62848260208601612c1d565b91505092915050565b600060608284031215612d8157612d8061404d565b5b612d8b6060613b3f565b90506000612d9b84828501612c5f565b600083015250602082013567ffffffffffffffff811115612dbf57612dbe614052565b5b612dcb84828501612d3d565b6020830152506040612ddf84828501612e00565b60408301525092915050565b600081359050612dfa816146a7565b92915050565b600081359050612e0f816146be565b92915050565b600060208284031215612e2b57612e2a614066565b5b6000612e3984828501612c5f565b91505092915050565b60008060408385031215612e5957612e58614066565b5b6000612e6785828601612c5f565b9250506020612e7885828601612c5f565b9150509250929050565b600080600060608486031215612e9b57612e9a614066565b5b6000612ea986828701612c5f565b9350506020612eba86828701612c5f565b9250506040612ecb86828701612deb565b9150509250925092565b60008060008060808587031215612eef57612eee614066565b5b6000612efd87828801612c5f565b9450506020612f0e87828801612c5f565b9350506040612f1f87828801612deb565b925050606085013567ffffffffffffffff811115612f4057612f3f614061565b5b612f4c87828801612d0f565b91505092959194509250565b60008060408385031215612f6f57612f6e614066565b5b6000612f7d85828601612c5f565b9250506020612f8e85828601612cd0565b9150509250929050565b600080600080600060a08688031215612fb457612fb3614066565b5b6000612fc288828901612c5f565b955050602086013567ffffffffffffffff811115612fe357612fe2614061565b5b612fef88828901612d3d565b945050604086013567ffffffffffffffff8111156130105761300f614061565b5b61301c88828901612d3d565b935050606086013567ffffffffffffffff81111561303d5761303c614061565b5b61304988828901612c74565b925050608086013567ffffffffffffffff81111561306a57613069614061565b5b61307688828901612ca2565b9150509295509295909350565b6000806040838503121561309a57613099614066565b5b60006130a885828601612c5f565b92505060206130b985828601612deb565b9150509250929050565b6000602082840312156130d9576130d8614066565b5b60006130e784828501612ce5565b91505092915050565b60006020828403121561310657613105614066565b5b600061311484828501612cfa565b91505092915050565b60006020828403121561313357613132614066565b5b600061314184828501612deb565b91505092915050565b600061315683836132c2565b905092915050565b600061316a8383613667565b905092915050565b61317b81613d93565b82525050565b61318a81613d93565b82525050565b600061319b82613c38565b6131a58185613c7e565b9350836020820285016131b785613c1e565b8060005b858110156131f357848403895281516131d4858261314a565b94506131df83613c64565b925060208a019950506001810190506131bb565b50829750879550505050505092915050565b600061321082613c43565b61321a8185613c8f565b93508360208202850161322c85613c2e565b8060005b858110156132685784840389528151613249858261315e565b945061325483613c71565b925060208a01995050600181019050613230565b50829750879550505050505092915050565b61328381613da5565b82525050565b600061329482613c4e565b61329e8185613c9a565b93506132ae818560208601613e23565b6132b78161406b565b840191505092915050565b60006132cd82613c59565b6132d78185613cab565b93506132e7818560208601613e23565b6132f08161406b565b840191505092915050565b600061330682613c59565b6133108185613cbc565b9350613320818560208601613e23565b6133298161406b565b840191505092915050565b600061333f82613c59565b6133498185613ccd565b9350613359818560208601613e23565b80840191505092915050565b6000613372601483613cbc565b915061337d8261407c565b602082019050919050565b6000613395603283613cbc565b91506133a0826140a5565b604082019050919050565b60006133b8602683613cbc565b91506133c3826140f4565b604082019050919050565b60006133db601c83613cbc565b91506133e682614143565b602082019050919050565b60006133fe602483613cbc565b91506134098261416c565b604082019050919050565b6000613421601983613cbc565b915061342c826141bb565b602082019050919050565b6000613444602c83613cbc565b915061344f826141e4565b604082019050919050565b6000613467601083613cbc565b915061347282614233565b602082019050919050565b600061348a603883613cbc565b91506134958261425c565b604082019050919050565b60006134ad602a83613cbc565b91506134b8826142ab565b604082019050919050565b60006134d0602983613cbc565b91506134db826142fa565b604082019050919050565b60006134f3602e83613cbc565b91506134fe82614349565b604082019050919050565b6000613516602083613cbc565b915061352182614398565b602082019050919050565b6000613539603183613cbc565b9150613544826143c1565b604082019050919050565b600061355c602c83613cbc565b915061356782614410565b604082019050919050565b600061357f602483613cbc565b915061358a8261445f565b604082019050919050565b60006135a2602083613cbc565b91506135ad826144ae565b602082019050919050565b60006135c5602983613cbc565b91506135d0826144d7565b604082019050919050565b60006135e8602f83613cbc565b91506135f382614526565b604082019050919050565b600061360b602183613cbc565b915061361682614575565b604082019050919050565b600061362e603183613cbc565b9150613639826145c4565b604082019050919050565b6000613651603083613cbc565b915061365c82614613565b604082019050919050565b600060608301600083015161367f6000860182613172565b506020830151848203602086015261369782826132c2565b91505060408301516136ac60408601826136c6565b508091505092915050565b6136c081613dfd565b82525050565b6136cf81613e07565b82525050565b60006136e18285613334565b91506136ed8284613334565b91508190509392505050565b600060208201905061370e6000830184613181565b92915050565b60006080820190506137296000830187613181565b6137366020830186613181565b61374360408301856136b7565b81810360608301526137558184613289565b905095945050505050565b6000602082019050818103600083015261377a8184613190565b905092915050565b6000602082019050818103600083015261379c8184613205565b905092915050565b60006020820190506137b9600083018461327a565b92915050565b600060208201905081810360008301526137d981846132fb565b905092915050565b600060808201905081810360008301526137fb81876132fb565b9050818103602083015261380f81866132fb565b905061381e6040830185613181565b61382b60608301846136b7565b95945050505050565b6000604082019050818103600083015261384e81856132fb565b905061385d60208301846136b7565b9392505050565b6000602082019050818103600083015261387d81613365565b9050919050565b6000602082019050818103600083015261389d81613388565b9050919050565b600060208201905081810360008301526138bd816133ab565b9050919050565b600060208201905081810360008301526138dd816133ce565b9050919050565b600060208201905081810360008301526138fd816133f1565b9050919050565b6000602082019050818103600083015261391d81613414565b9050919050565b6000602082019050818103600083015261393d81613437565b9050919050565b6000602082019050818103600083015261395d8161345a565b9050919050565b6000602082019050818103600083015261397d8161347d565b9050919050565b6000602082019050818103600083015261399d816134a0565b9050919050565b600060208201905081810360008301526139bd816134c3565b9050919050565b600060208201905081810360008301526139dd816134e6565b9050919050565b600060208201905081810360008301526139fd81613509565b9050919050565b60006020820190508181036000830152613a1d8161352c565b9050919050565b60006020820190508181036000830152613a3d8161354f565b9050919050565b60006020820190508181036000830152613a5d81613572565b9050919050565b60006020820190508181036000830152613a7d81613595565b9050919050565b60006020820190508181036000830152613a9d816135b8565b9050919050565b60006020820190508181036000830152613abd816135db565b9050919050565b60006020820190508181036000830152613add816135fe565b9050919050565b60006020820190508181036000830152613afd81613621565b9050919050565b60006020820190508181036000830152613b1d81613644565b9050919050565b6000602082019050613b3960008301846136b7565b92915050565b6000613b49613b5a565b9050613b558282613e88565b919050565b6000604051905090565b600067ffffffffffffffff821115613b7f57613b7e614019565b5b602082029050602081019050919050565b600067ffffffffffffffff821115613bab57613baa614019565b5b602082029050602081019050919050565b600067ffffffffffffffff821115613bd757613bd6614019565b5b613be08261406b565b9050602081019050919050565b600067ffffffffffffffff821115613c0857613c07614019565b5b613c118261406b565b9050602081019050919050565b6000819050602082019050919050565b6000819050919050565b600081519050919050565b600060069050919050565b600081519050919050565b600081519050919050565b6000602082019050919050565b6000602082019050919050565b600082825260208201905092915050565b600081905092915050565b600082825260208201905092915050565b600082825260208201905092915050565b600082825260208201905092915050565b600081905092915050565b6000613ce382613dfd565b9150613cee83613dfd565b9250827fffffffffffffffffffffffffffffffffffffffffffffffffffffffffffffffff03821115613d2357613d22613f5d565b5b828201905092915050565b6000613d3982613dfd565b9150613d4483613dfd565b925082613d5457613d53613f8c565b5b828204905092915050565b6000613d6a82613dfd565b9150613d7583613dfd565b925082821015613d8857613d87613f5d565b5b828203905092915050565b6000613d9e82613ddd565b9050919050565b60008115159050919050565b60007fffffffff0000000000000000000000000000000000000000000000000000000082169050919050565b600073ffffffffffffffffffffffffffffffffffffffff82169050919050565b6000819050919050565b600060ff82169050919050565b82818337600083830152505050565b60005b83811015613e41578082015181840152602081019050613e26565b83811115613e50576000848401525b50505050565b60006002820490506001821680613e6e57607f821691505b60208210811415613e8257613e81613fbb565b5b50919050565b613e918261406b565b810181811067ffffffffffffffff82111715613eb057613eaf614019565b5b80604052505050565b6000613ec482613dfd565b91507fffffffffffffffffffffffffffffffffffffffffffffffffffffffffffffffff821415613ef757613ef6613f5d565b5b600182019050919050565b6000613f0d82613e07565b915060ff821415613f2157613f20613f5d565b5b600182019050919050565b6000613f3782613dfd565b9150613f4283613dfd565b925082613f5257613f51613f8c565b5b828206905092915050565b7f4e487b7100000000000000000000000000000000000000000000000000000000600052601160045260246000fd5b7f4e487b7100000000000000000000000000000000000000000000000000000000600052601260045260246000fd5b7f4e487b7100000000000000000000000000000000000000000000000000000000600052602260045260246000fd5b7f4e487b7100000000000000000000000000000000000000000000000000000000600052603260045260246000fd5b7f4e487b7100000000000000000000000000000000000000000000000000000000600052604160045260246000fd5b600080fd5b600080fd5b600080fd5b600080fd5b600080fd5b600080fd5b600080fd5b6000601f19601f8301169050919050565b7f5061757361626c653a206e6f7420706175736564000000000000000000000000600082015250565b7f4552433732313a207472616e7366657220746f206e6f6e20455243373231526560008201527f63656976657220696d706c656d656e7465720000000000000000000000000000602082015250565b7f4f776e61626c653a206e6577206f776e657220697320746865207a65726f206160008201527f6464726573730000000000000000000000000000000000000000000000000000602082015250565b7f4552433732313a20746f6b656e20616c7265616479206d696e74656400000000600082015250565b7f4552433732313a207472616e7366657220746f20746865207a65726f2061646460008201527f7265737300000000000000000000000000000000000000000000000000000000602082015250565b7f4552433732313a20617070726f766520746f2063616c6c657200000000000000600082015250565b7f4552433732313a206f70657261746f7220717565727920666f72206e6f6e657860008201527f697374656e7420746f6b656e0000000000000000000000000000000000000000602082015250565b7f5061757361626c653a2070617573656400000000000000000000000000000000600082015250565b7f4552433732313a20617070726f76652063616c6c6572206973206e6f74206f7760008201527f6e6572206e6f7220617070726f76656420666f7220616c6c0000000000000000602082015250565b7f4552433732313a2062616c616e636520717565727920666f7220746865207a6560008201527f726f206164647265737300000000000000000000000000000000000000000000602082015250565b7f4552433732313a206f776e657220717565727920666f72206e6f6e657869737460008201527f656e7420746f6b656e0000000000000000000000000000000000000000000000602082015250565b7f45524337323155524953746f726167653a2055524920736574206f66206e6f6e60008201527f6578697374656e7420746f6b656e000000000000000000000000000000000000602082015250565b7f4552433732313a206d696e7420746f20746865207a65726f2061646472657373600082015250565b7f45524337323155524953746f726167653a2055524920717565727920666f722060008201527f6e6f6e6578697374656e7420746f6b656e000000000000000000000000000000602082015250565b7f4552433732313a20617070726f76656420717565727920666f72206e6f6e657860008201527f697374656e7420746f6b656e0000000000000000000000000000000000000000602082015250565b7f496e76616c69642070726f6669742073686172696e6720636f6e66696775726160008201527f74696f6e00000000000000000000000000000000000000000000000000000000602082015250565b7f4f776e61626c653a2063616c6c6572206973206e6f7420746865206f776e6572600082015250565b7f4552433732313a207472616e73666572206f6620746f6b656e2074686174206960008201527f73206e6f74206f776e0000000000000000000000000000000000000000000000602082015250565b7f4552433732314d657461646174613a2055524920717565727920666f72206e6f60008201527f6e6578697374656e7420746f6b656e0000000000000000000000000000000000602082015250565b7f4552433732313a20617070726f76616c20746f2063757272656e74206f776e6560008201527f7200000000000000000000000000000000000000000000000000000000000000602082015250565b7f4552433732313a207472616e736665722063616c6c6572206973206e6f74206f60008201527f776e6572206e6f7220617070726f766564000000000000000000000000000000602082015250565b7f4552433732314275726e61626c653a2063616c6c6572206973206e6f74206f7760008201527f6e6572206e6f7220617070726f76656400000000000000000000000000000000602082015250565b61466b81613d93565b811461467657600080fd5b50565b61468281613da5565b811461468d57600080fd5b50565b61469981613db1565b81146146a457600080fd5b50565b6146b081613dfd565b81146146bb57600080fd5b50565b6146c781613e07565b81146146d257600080fd5b5056fea2646970667358221220dcae8858e1554bca155f9a08890ca616579e669d055b3294995274f406ed781564736f6c63430008070033",
  "linkReferences": {},
  "deployedLinkReferences": {}
}